:101156003334003131320031313100D3A2000B0B70
:021166000B0B71
:100A2100782A7C007D007BFF7A1179647E007F0447
:100A310012084C12117912111A1211A8120D8D12ED
:100A41000941120F597BFF7A1179567533107D01D7
:100A51007F24120EB27B007A00792A120F831211C1
:100A6100E07B007A007922120E6FE522652660385C
:100A7100E522B465127BFF7A1179597533107D0334
:100A81007F24120EB2801EE522B4661C7BFF7A1110
:100A9100795D7533107D037F24120EB27BFF7A11CD
:100AA1007961120FD085222620B30E752A0B752B82
:100AB1000B752C0B752D0B800F20B40C752A167538
:100AC1002B16752C16752D16E4FF12112FEF75F0EC
:100AD10004A4FFADBEE5F0FAEF4DFB7532047533AA
:0E0AE100107D057F05120C381211E0020A5636
:0B11E0000000007F027E99DEFEDFFCB5
:0111EB0022E1
:10105800080E050109080A020604040A0802060126
:04003B00E4F5A02226
:040E2A008E1D8F1E6C
:100E2E00E4F51FED701DF51F740E251FF8E625E085
:100E3E00F5A0AF1EAE1D1210F0051FE51FC39408DE
:100E4E0040E622751F07740E251FF8E625E0F5A073
:100E5E00AF1EAE1D1210F0151FE51FD3940050E605
:010E6E002261
:020DDD008F186D
:100DDF00E4F519F51AF51BF51CAF1C051CEFC395AF
:100DEF00185037E4F519E519C3941450ECE4F51BCA
:100DFF00740E251AF8E625E0F5A0051AE51AC39436
:100E0F00084003E4F51A7F017E001210F0051BE580
:0A0E1F001BC3941440DA051980CCBF
:010E290022A6
:10103800E4F569F569740E2569F8E625E0F5A07F01
:0F104800017E001210F00569E569C3940840E6C7
:011057002276
:10101700E4F56A756A07740E256AF8E625E0F5A017
:101027007F017E001210F0156AE56AD3940050E63E
:011037002296
:10117900D2AF758911D2A9758CFC758A18D28C22C7
:03000B000211439C
:10114300C0E0758CFC758A180556E5567002055586
:03115300D0E032B7
:1010F0008E578F58E4F555F556C3E5569558E55586
:05110000955740F522A7
:0E11990000007F167E037DE3DDFEDEFCDFFA44
:0111A7002225
:1000460000000000000000000000000000000000AA
:10005600000000000000000000F8000000000000A2
:1000660000333000000000100C06100C06000000E3
:1000760000000000000040C07840C0784000043F07
:1000860004043F040400007088FC083000000018D7
:1000960020FF211E0000F008F000E01800000021FB
:1000A6001C031E211E0000F00888700000001E219F
:1000B60023241927211010160E000000000000004E
:1000C600000000000000000000E01804020000002C
:1000D60000071820400000020418E000000000405D
:1000E600201807000000404080F0804040000202D7
:1000F600010F01020200000000F0000000000101F3
:10010600011F01010100000000000000000080B096
:100116007000000000000000000000000000000168
:100126000101010101010000000080601804006067
:10013600180601000000000000000000000000306A
:1001460030000000000000E010080810E000000F7A
:10015600102020100F00001010F8000000000020F2
:10016600203F20200000007008080888700000303A
:1001760028242221300000300888884830000018E2
:10018600202020110E000000C02010F800000007FB
:100196000424243F240000F8088888080800001971
:1001A600212020110E0000E0108888180000000FA2
:1001B600112020110E0000380808C8380800000079
:1001C600003F000000000070880808887000001CCE
:1001D600222121221C0000E010080810E000000087
:1001E600312222110F00000000C0C00000000000F4
:1001F6000030300000000000008000000000000019
:10020600806000000000000080402010080000010F
:1002160002040810200040404040404040000404D2
:10022600040404040400000810204080000000209C
:10023600100804020100007048080808F0000000D9
:10024600003036010000C030C828E810E00007186A
:10025600272423140B000000C038E0000000203CD7
:1002660023020227382008F8888888700000203F7B
:10027600202020110E00C030080808083800071892
:1002860020202010080008F808080810E000203F89
:10029600202020100F0008F88888E8081000203F6A
:1002A60020202320180008F88888E8081000203F3E
:1002B600200003000000C0300808083800000718B6
:1002C6002020221E020008F808000008F808203F37
:1002D600210101213F20000808F80808000000203D
:1002E600203F2020000000000808F8080800C08011
:1002F60080807F00000008F888C028180800203F8A
:1003060020012638200008F8080000000000203FE1
:1003160020202020300008F8F800F8F80800203FD8
:10032600003F003F200008F830C00008F808203FD2
:10033600200007183F00E01008080810E0000F1022
:10034600202020100F0008F808080808F000203FB9
:10035600210101010000E01008080810E0000F1854
:10036600242438504F0008F8888888887000203F79
:100376002000030C30200070880808083800003878
:10038600202121221C00180808F80808180000007F
:10039600203F2000000008F808000008F808001FA9
:1003A600202020201F000878880000C83808000098
:1003B60007380E010000F80800F80008F800033CB2
:1003C6000700073C0300081868808068180820307A
:1003D6002C03032C30200838C800C8380800000059
:1003E600203F2000000010080808C8380800203800
:1003F600262120201800000000FE02020200000054
:10040600007F40404000000C30C0000000000000AB
:1004160000010638C00000020202FE000000004093
:1004260040407F00000000000402020204000000B9
:1004360000000000000000000000000000008080B6
:10044600808080808080000202040000000000009E
:10045600000000000000000080808080000000197D
:10046600242222223F2008F8008080000000003F5E
:10047600112020110E000000008080800000000E78
:10048600112020201100000000808088F800000E56
:10049600112020103F200000808080800000001F77
:1004A600222222221300008080F0888888180020EB
:1004B600203F202000000000808080808000006BAC
:1004C60094949493600008F8008080800000203F98
:1004D600210000203F2000809898000000000020A6
:1004E600203F20200000000000809898000000C0F7
:1004F6008080807F000008F8000080808000203F18
:1005060024022D302000000808F80000000000201A
:10051600203F202000008080808080808000203F57
:1005260020003F20003F8080008080800000203F28
:10053600210000203F200000808080800000001FF6
:10054600202020201F00808000808000000080FF87
:10055600A12020110E000000008080808000000E87
:10056600112020A0FF8080808000808080002020D5
:100576003F21200001000000808080808000003341
:10058600242424241900008080E0808000000000DC
:10059600001F202000008080000000808000001FD7
:1005A600202020103F208080800000808080000175
:1005B6000E300806010080800080008080800F30A9
:1005C6000C030C300F00008080008080800000202B
:1005D600312E0E3120008080800000808080808156
:1005E6008E701806010000808080808080000021C7
:1005F600302C2221300000000000807C0202000026
:100606000000003F404000000000FF000000000026
:100616000000FF0000000002027C80000000004095
:10062600403F000000000006010102020404000031
:10063600000000000000080889EA1888000404FC8D
:10064600040404FC0000000000000000000000009C
:10065600000000000000020100FF0186402018078C
:100666004080403F00000000000000000000000045
:100676000000000000001010F01F10F00040E058CD
:1006860047405060C000000000000000000000006D
:100696000000000000004022150816210000FE425E
:1006A600424242FE00000000000000000000000080
:1006B600000000000000008060F807000000FF4016
:1006C60020100804000000000000000000000000E8
:1006D600000000000000010000FF000402013F408E
:1006E600404040407800000000000000000000008C
:1006F6000000000000000000F010101010FF1010A5
:100706001010F000000000000000000000000000D3
:1007160000000000000000000F04040404FF0404AD
:1007260004040F00000000000000000000000000AC
:1007360000000000000000000000000000000000B3
:1007460000000000000000000000000000000000A3
:100756000000000000000000000000000000000093
:100766000000000000000000000000000000000083
:060776000000000000007D
:10107700EF4E60157D087C07ED1DAA0470011C4A20
:0910870070F6EF1F70EA1E80E70D
:01109000223D
:0911EC00D2B6D2B5C2B5C2B622DA
:07000300D2B6C2B5D2B5224E
:0B118900120FB1121194AF04120FB14D
:05119400D2B6C2B62234
:070FAA00AC071211EC7F7887
:100FB100C2B6E4FEAD07530580BD8004D2B5800200
:0E0FC100C2B5EF25E0FFD2B6C2B60EBE08E6FE
:010FCF0022FF
:0E11B700120FAA121194E4FF12118902000314
:0E11C500120FAA1211947F401211890200032A
:100FF500121006E4FDFCFFFE1210067F10E4FDFC56
:01100500FEEC
:10100600AB07AA06ED4C60030211C5AF031211B778
:0110160022B7
:100F2D00A907ED24B0FFE433FEE4FDFC121006E941
:100F3D0054F0C4540F7E004410FFE4FDFC12100663
:0C0F4D00E9540FFF7E00E4FDFC021006DA
:1010C2007F8D121002E4FDFC7F14FE121006E4FD77
:0710D200FC7FAFFE021006D7
:100F5900E4F9E924B0FFE433FEE4FDFC120FF5E403
:100F6900F52E7D017C00E4FFFE121006052EE52E0C
:090F7900C3948040ED09B908D9C8
:010F8200224C
:040AEF008F378D3878
:100AF300E4F53BF9EB24E0F53BE537D3947F40077E
:100B0300E4F53705380538E53A64107069AD38AF58
:100B130037120F2DE4F975F010E53BA429F582E4B3
:100B230035F0F583E582244CF582E5833400F583C3
:100B3300E493FF7E007D017C0012100609B908D6FC
:100B4300E53804FDAF37120F2DE4F975F010E53BDE
:100B5300A429F582E435F0F583E5822454F582E592
:100B6300833400F583E493FF7E007D017C00121043
:100B73000609B908D622AD38AF37120F2DE4F9E5CF
:100B83003B75F006A42446F582E43400F583E58240
:100B930029F582E43583F583E493FF7E007D017CB0
:080BA3000012100609B906D783
:010BAB002227
:0410AA008F37A905CE
:1010AE007F017E00AD0119ED6009AD377C0012089D
:0310BE00DA80F1E4
:0110C100220C
:080C38008F2E8D2F8A308B31C5
:100C4000E4F536F534E534C395325065C3E53295A5
:100C50003414FD7F0A1210AAAC30AD31CFCDCFCE07
:100C6000CCCE1208EC7C007D0A1208EC8D35E536FE
:100C70007023E53214FFE534C39F5019E535701237
:100C8000E533C3138534F0A4252EFF85333A7B204A
:100C90008016753601E533C3138534F0A4252EFF85
:100CA000E5352430FB85333AAD2F120AEF05348049
:010CB00094AF
:010CB1002220
:0A0EB2008F2E8D2F8B308A3189328C
:100EBC00E4F534AB30AA31A9328534827583001243
:100ECC00088BFB602085333AAD2FAF2E120AEF74DE
:100EDC0008252EF52ED394784007E4F52E052F0522
:050EEC002F053480CE4B
:010EF10022DE
:060CB2008F598D5A8B5B87
:100CB800E4F55C120F2DE4F975F040E55BA4243CE3
:100CC800F582E5F03406F583E58229F582E435837B
:100CD800F583E493FF7E007D017C00121006055C1D
:100CE80009B910D4E55A04FDAF59120F2DE4F9756E
:100CF800F040E55BA4245CF582E5F03406F583E575
:100D08008229F582E43583F583E493FF7E007D0133
:0B0D18007C00121006055C09B910D425
:010D230022AD
:040D24008F3C8B3E37
:100D2800E4F543F544E53F5407700BE53F1313130F
:100D3800541FF546800AE53F131313541F04F54664
:100D48008D46E546C3953F503BAD46AF3C120F2D4F
:100D5800853C45E545C3953E5026AB40AA41A9428E
:100D68000544E544AE437002054314F5828E8312B0
:100D7800088BFF7E007D017C00121006054580D39C
:040D8800054680BEDE
:010D8C002244
:10094100E4FDFC7FAEFE120FF5E4FDFC7F40FE12DC
:100951001006E4FDFC7FB0FE121006E4FDFC7F8171
:10096100FE121006E4FDFC7FFFFE121006E4FDFC02
:100971007FA0FE121006E4FDFC7FA6FE121006E425
:10098100FDFC7FA8FE121006E4FDFC7F3FFE121065
:1009910006E4FDFC7FC0FE121006E4FDFC7FD3FEE1
:1009A100121006E4FDFCFFFE121006E4FDFC7FD5EB
:1009B100FE121006E4FDFC7F80FE121006E4FDFC31
:1009C1007FD8FE121006E4FDFC7F05FE121006E43E
:1009D100FDFC7FD9FE121006E4FDFC7FF1FE121032
:1009E10006E4FDFC7FDAFE121006E4FDFC7F12FE38
:1009F100121006E4FDFC7FDBFE121006E4FDFC7F15
:100A010030FE121006E4FDFC7F8DFE121006E4FD9F
:100A1100FC7F14FE121006E4FDFC7FAFFE021006FF
:0E106800054C00000000A1054700000000A19B
:10110500E4FEEEC39F500D0000000000000000004B
:04111500000E80EE5A
:0111190022B3
:10109100E4FEEF339294EF25E0FFD295A293E4337F
:0810A1004207C2950EBE08EAE9
:0110A9002224
:0C11D300C296121091E4FF121091D29607
:0111DF0022ED
:10116800C296121091AC07AF05121091D296AF0437
:011178002254
:06000E008B328A338934B5
:10001400C296121091E4FDEDC395355017E4FF121A
:100024001091AB32AA33A9348D82758300EF120884
:06003400B80D80E3D29636
:01003A0022A3
:0B0EF2007B007A0079477535057F2AE8
:060EFD008B328A338934B8
:100F0300C2961210918F36E4FDEDC395355018ABA0
:100F1300320534E534AA337002053314F91208722A
:090F2300FF1210910D80E2D2963C
:010F2C0022A2
:100F83008B2E8A2F8930C297120EF2AB2EAA2FA96D
:100F9300307535047FA0120EFD7D0E7F201211687F
:070FA300D2977FFA0211054D
:100E6F008B2E8A2F8930C2977B007A00794C75358B
:100E7F00057F30120EFD7D0F7F201211687F071244
:100E8F0011D38F2030060EAB2EAA2FA93075350443
:100E9F007F6112000EAD207F27121168D2977FC895
:030EAF0002110528
:100D8D00C297D296C2957FC8121105121105121184
:100D9D0005C297D296C2957B007A00794C753505C0
:100DAD007F30120EFD120EF27D017F211211687F30
:100DBD00221211681D7F251211687D047F311211D9
:100DCD00687D077F261211687FC812110502110573
:0F11A800759D01E4F5BD75BC807F02FE0210F05D
:10112F00EF4488F5BC00000000E5BC30E4FB53BC85
:04113F00EFAFBD222F
:10111A0053BAFE759A5075D7E075D6FE758E14755A
:05112A00AF01D2AF226D
:030043000210D9CF
:1010D900C0E0E59A30E003539AFEE59A30E1055302
:0710E9009AFDC208D0E032BD
:0911F5002008FDEFD208F59B2251
:100FD0008B2E8A2F8930AB2EAA2FA930120872606F
:100FE000130530E5307002052F14F9120872FF1254
:050FF00011F580E22272
:03000000020BAC44
:0C0BAC00787FE4F6D8FD75816A020BF337
:10077C00E709F608DFFA8046E709F208DFFA803E5F
:10078C0088828C83E709F0A3DFFA8032E309F6084C
:10079C00DFFA8078E309F208DFFA807088828C83B4
:1007AC00E309F0A3DFFA806489828A83E0A3F60868
:1007BC00DFFA805889828A83E0A3F208DFFA804C42
:1007CC0080D280FA80C680D4806980F28033801019
:1007DC0080A680EA809A80A880DA80E280CA803382
:1007EC0089828A83ECFAE493A3C8C582C8CCC583FA
:1007FC00CCF0A3C8C582C8CCC583CCDFE9DEE780CA
:10080C000D89828A83E493A3F608DFF9ECFAA9F048
:10081C00EDFB2289828A83ECFAE0A3C8C582C8CC9E
:10082C00C583CCF0A3C8C582C8CCC583CCDFEADEB7
:10083C00E880DB89828A83E493A3F208DFF980CC19
:10084C0088F0EF60010E4E60C388F0ED2402B40412
:10085C000050B9F582EB2402B4040050AF232345B9
:06086C0082239007CC730B
:10087200BB010689828A83E0225002E722BBFE0284
:09088200E32289828A83E49322B7
:10088B00BB010CE58229F582E5833AF583E0225022
:10089B0006E92582F8E622BBFE06E92582F8E2226C
:0D08AB00E58229F582E5833AF583E4932286
:1008B800F8BB010DE58229F582E5833AF583E8F076
:1008C800225006E92582C8F622BBFE05E92582C822
:0208D800F2220A
:1008DA00EF8DF0A4A8F0CF8CF0A428CE8DF0A42E32
:0208EA00FE22EC
:1008EC00BC000BBE0029EF8DF084FFADF022E4CCF0
:1008FC00F875F008EF2FFFEE33FEEC33FCEE9DECB9
:10090C00984005FCEE9DFE0FD5F0E9E4CEFD22EDFE
:10091C00F8F5F0EE8420D21CFEADF075F008EF2F48
:10092C00FFED33FD4007985006D5F0F222C398FD39
:05093C000FD5F0EA22D6
:100BB800020A21E493A3F8E493A34003F68001F228
:100BC80008DFF48029E493A3F85407240CC8C3333E
:100BD800C4540F4420C8834004F456800146F6DF0D
:100BE800E4800B0102040810204080901058E47E35
:100BF800019360BCA3FF543F30E509541FFEE49302
:100C0800A360010ECF54C025E060A840B8E493A3C8
:100C1800FAE493A3F8E493A3C8C582C8CAC583CAF3
:100C2800F0A3C8C582C8CAC583CADFE9DEE780BEAB
:011076000079
:00000001FF
